{
  "_format": "hh-sol-artifact-1",
  "contractName": "FrogNFT",
  "sourceName": "contracts/FrogNFT.sol",
  "abi": [
    {
      "inputs": [
        {
          "internalType": "address",
          "name": "initialOwner",
          "type": "address"
        }
      ],
      "stateMutability": "nonpayable",
      "type": "constructor"
    },
    {
      "inputs": [
        {
          "internalType": "address",
          "name": "sender",
          "type": "address"
        },
        {
          "internalType": "uint256",
          "name": "tokenId",
          "type": "uint256"
        },
        {
          "internalType": "address",
          "name": "owner",
          "type": "address"
        }
      ],
      "name": "ERC721IncorrectOwner",
      "type": "error"
    },
    {
      "inputs": [
        {
          "internalType": "address",
          "name": "operator",
          "type": "address"
        },
        {
          "internalType": "uint256",
          "name": "tokenId",
          "type": "uint256"
        }
      ],
      "name": "ERC721InsufficientApproval",
      "type": "error"
    },
    {
      "inputs": [
        {
          "internalType": "address",
          "name": "approver",
          "type": "address"
        }
      ],
      "name": "ERC721InvalidApprover",
      "type": "error"
    },
    {
      "inputs": [
        {
          "internalType": "address",
          "name": "operator",
          "type": "address"
        }
      ],
      "name": "ERC721InvalidOperator",
      "type": "error"
    },
    {
      "inputs": [
        {
          "internalType": "address",
          "name": "owner",
          "type": "address"
        }
      ],
      "name": "ERC721InvalidOwner",
      "type": "error"
    },
    {
      "inputs": [
        {
          "internalType": "address",
          "name": "receiver",
          "type": "address"
        }
      ],
      "name": "ERC721InvalidReceiver",
      "type": "error"
    },
    {
      "inputs": [
        {
          "internalType": "address",
          "name": "sender",
          "type": "address"
        }
      ],
      "name": "ERC721InvalidSender",
      "type": "error"
    },
    {
      "inputs": [
        {
          "internalType": "uint256",
          "name": "tokenId",
          "type": "uint256"
        }
      ],
      "name": "ERC721NonexistentToken",
      "type": "error"
    },
    {
      "inputs": [
        {
          "internalType": "address",
          "name": "owner",
          "type": "address"
        }
      ],
      "name": "OwnableInvalidOwner",
      "type": "error"
    },
    {
      "inputs": [
        {
          "internalType": "address",
          "name": "account",
          "type": "address"
        }
      ],
      "name": "OwnableUnauthorizedAccount",
      "type": "error"
    },
    {
      "anonymous": false,
      "inputs": [
        {
          "indexed": true,
          "internalType": "address",
          "name": "owner",
          "type": "address"
        },
        {
          "indexed": true,
          "internalType": "address",
          "name": "approved",
          "type": "address"
        },
        {
          "indexed": true,
          "internalType": "uint256",
          "name": "tokenId",
          "type": "uint256"
        }
      ],
      "name": "Approval",
      "type": "event"
    },
    {
      "anonymous": false,
      "inputs": [
        {
          "indexed": true,
          "internalType": "address",
          "name": "owner",
          "type": "address"
        },
        {
          "indexed": true,
          "internalType": "address",
          "name": "operator",
          "type": "address"
        },
        {
          "indexed": false,
          "internalType": "bool",
          "name": "approved",
          "type": "bool"
        }
      ],
      "name": "ApprovalForAll",
      "type": "event"
    },
    {
      "anonymous": false,
      "inputs": [
        {
          "indexed": false,
          "internalType": "uint256",
          "name": "_fromTokenId",
          "type": "uint256"
        },
        {
          "indexed": false,
          "internalType": "uint256",
          "name": "_toTokenId",
          "type": "uint256"
        }
      ],
      "name": "BatchMetadataUpdate",
      "type": "event"
    },
    {
      "anonymous": false,
      "inputs": [
        {
          "indexed": true,
          "internalType": "uint256",
          "name": "tokenId",
          "type": "uint256"
        },
        {
          "indexed": false,
          "internalType": "uint256",
          "name": "newLevel",
          "type": "uint256"
        }
      ],
      "name": "FrogLeveledUp",
      "type": "event"
    },
    {
      "anonymous": false,
      "inputs": [
        {
          "indexed": true,
          "internalType": "address",
          "name": "owner",
          "type": "address"
        },
        {
          "indexed": true,
          "internalType": "uint256",
          "name": "tokenId",
          "type": "uint256"
        },
        {
          "indexed": false,
          "internalType": "string",
          "name": "faction",
          "type": "string"
        }
      ],
      "name": "FrogMinted",
      "type": "event"
    },
    {
      "anonymous": false,
      "inputs": [
        {
          "indexed": true,
          "internalType": "address",
          "name": "gameContract",
          "type": "address"
        }
      ],
      "name": "GameContractSet",
      "type": "event"
    },
    {
      "anonymous": false,
      "inputs": [
        {
          "indexed": false,
          "internalType": "uint256",
          "name": "_tokenId",
          "type": "uint256"
        }
      ],
      "name": "MetadataUpdate",
      "type": "event"
    },
    {
      "anonymous": false,
      "inputs": [
        {
          "indexed": true,
          "internalType": "address",
          "name": "previousOwner",
          "type": "address"
        },
        {
          "indexed": true,
          "internalType": "address",
          "name": "newOwner",
          "type": "address"
        }
      ],
      "name": "OwnershipTransferred",
      "type": "event"
    },
    {
      "anonymous": false,
      "inputs": [
        {
          "indexed": true,
          "internalType": "address",
          "name": "from",
          "type": "address"
        },
        {
          "indexed": true,
          "internalType": "address",
          "name": "to",
          "type": "address"
        },
        {
          "indexed": true,
          "internalType": "uint256",
          "name": "tokenId",
          "type": "uint256"
        }
      ],
      "name": "Transfer",
      "type": "event"
    },
    {
      "inputs": [
        {
          "internalType": "uint256",
          "name": "tokenId",
          "type": "uint256"
        },
        {
          "internalType": "uint256",
          "name": "amount",
          "type": "uint256"
        }
      ],
      "name": "addExperience",
      "outputs": [],
      "stateMutability": "nonpayable",
      "type": "function"
    },
    {
      "inputs": [
        {
          "internalType": "address",
          "name": "to",
          "type": "address"
        },
        {
          "internalType": "uint256",
          "name": "tokenId",
          "type": "uint256"
        }
      ],
      "name": "approve",
      "outputs": [],
      "stateMutability": "nonpayable",
      "type": "function"
    },
    {
      "inputs": [
        {
          "internalType": "address",
          "name": "owner",
          "type": "address"
        }
      ],
      "name": "balanceOf",
      "outputs": [
        {
          "internalType": "uint256",
          "name": "",
          "type": "uint256"
        }
      ],
      "stateMutability": "view",
      "type": "function"
    },
    {
      "inputs": [
        {
          "internalType": "uint256",
          "name": "",
          "type": "uint256"
        }
      ],
      "name": "frogAttributes",
      "outputs": [
        {
          "internalType": "uint256",
          "name": "strength",
          "type": "uint256"
        },
        {
          "internalType": "uint256",
          "name": "agility",
          "type": "uint256"
        },
        {
          "internalType": "uint256",
          "name": "intelligence",
          "type": "uint256"
        },
        {
          "internalType": "uint256",
          "name": "level",
          "type": "uint256"
        },
        {
          "internalType": "uint256",
          "name": "experience",
          "type": "uint256"
        },
        {
          "internalType": "string",
          "name": "faction",
          "type": "string"
        },
        {
          "internalType": "bool",
          "name": "isActive",
          "type": "bool"
        }
      ],
      "stateMutability": "view",
      "type": "function"
    },
    {
      "inputs": [],
      "name": "gameContract",
      "outputs": [
        {
          "internalType": "address",
          "name": "",
          "type": "address"
        }
      ],
      "stateMutability": "view",
      "type": "function"
    },
    {
      "inputs": [
        {
          "internalType": "uint256",
          "name": "tokenId",
          "type": "uint256"
        }
      ],
      "name": "getApproved",
      "outputs": [
        {
          "internalType": "address",
          "name": "",
          "type": "address"
        }
      ],
      "stateMutability": "view",
      "type": "function"
    },
    {
      "inputs": [
        {
          "internalType": "uint256",
          "name": "tokenId",
          "type": "uint256"
        }
      ],
      "name": "getFrogAttributes",
      "outputs": [
        {
          "components": [
            {
              "internalType": "uint256",
              "name": "strength",
              "type": "uint256"
            },
            {
              "internalType": "uint256",
              "name": "agility",
              "type": "uint256"
            },
            {
              "internalType": "uint256",
              "name": "intelligence",
              "type": "uint256"
            },
            {
              "internalType": "uint256",
              "name": "level",
              "type": "uint256"
            },
            {
              "internalType": "uint256",
              "name": "experience",
              "type": "uint256"
            },
            {
              "internalType": "string",
              "name": "faction",
              "type": "string"
            },
            {
              "internalType": "bool",
              "name": "isActive",
              "type": "bool"
            }
          ],
          "internalType": "struct FrogNFT.FrogAttributes",
          "name": "",
          "type": "tuple"
        }
      ],
      "stateMutability": "view",
      "type": "function"
    },
    {
      "inputs": [
        {
          "internalType": "address",
          "name": "owner",
          "type": "address"
        },
        {
          "internalType": "address",
          "name": "operator",
          "type": "address"
        }
      ],
      "name": "isApprovedForAll",
      "outputs": [
        {
          "internalType": "bool",
          "name": "",
          "type": "bool"
        }
      ],
      "stateMutability": "view",
      "type": "function"
    },
    {
      "inputs": [
        {
          "internalType": "uint256",
          "name": "tokenId",
          "type": "uint256"
        }
      ],
      "name": "levelUp",
      "outputs": [],
      "stateMutability": "nonpayable",
      "type": "function"
    },
    {
      "inputs": [
        {
          "internalType": "address",
          "name": "owner",
          "type": "address"
        },
        {
          "internalType": "string",
          "name": "faction",
          "type": "string"
        },
        {
          "internalType": "uint256",
          "name": "strength",
          "type": "uint256"
        },
        {
          "internalType": "uint256",
          "name": "agility",
          "type": "uint256"
        },
        {
          "internalType": "uint256",
          "name": "intelligence",
          "type": "uint256"
        }
      ],
      "name": "mintFrog",
      "outputs": [
        {
          "internalType": "uint256",
          "name": "",
          "type": "uint256"
        }
      ],
      "stateMutability": "nonpayable",
      "type": "function"
    },
    {
      "inputs": [],
      "name": "name",
      "outputs": [
        {
          "internalType": "string",
          "name": "",
          "type": "string"
        }
      ],
      "stateMutability": "view",
      "type": "function"
    },
    {
      "inputs": [],
      "name": "owner",
      "outputs": [
        {
          "internalType": "address",
          "name": "",
          "type": "address"
        }
      ],
      "stateMutability": "view",
      "type": "function"
    },
    {
      "inputs": [
        {
          "internalType": "uint256",
          "name": "tokenId",
          "type": "uint256"
        }
      ],
      "name": "ownerOf",
      "outputs": [
        {
          "internalType": "address",
          "name": "",
          "type": "address"
        }
      ],
      "stateMutability": "view",
      "type": "function"
    },
    {
      "inputs": [],
      "name": "renounceOwnership",
      "outputs": [],
      "stateMutability": "nonpayable",
      "type": "function"
    },
    {
      "inputs": [
        {
          "internalType": "address",
          "name": "from",
          "type": "address"
        },
        {
          "internalType": "address",
          "name": "to",
          "type": "address"
        },
        {
          "internalType": "uint256",
          "name": "tokenId",
          "type": "uint256"
        }
      ],
      "name": "safeTransferFrom",
      "outputs": [],
      "stateMutability": "nonpayable",
      "type": "function"
    },
    {
      "inputs": [
        {
          "internalType": "address",
          "name": "from",
          "type": "address"
        },
        {
          "internalType": "address",
          "name": "to",
          "type": "address"
        },
        {
          "internalType": "uint256",
          "name": "tokenId",
          "type": "uint256"
        },
        {
          "internalType": "bytes",
          "name": "data",
          "type": "bytes"
        }
      ],
      "name": "safeTransferFrom",
      "outputs": [],
      "stateMutability": "nonpayable",
      "type": "function"
    },
    {
      "inputs": [
        {
          "internalType": "address",
          "name": "operator",
          "type": "address"
        },
        {
          "internalType": "bool",
          "name": "approved",
          "type": "bool"
        }
      ],
      "name": "setApprovalForAll",
      "outputs": [],
      "stateMutability": "nonpayable",
      "type": "function"
    },
    {
      "inputs": [
        {
          "internalType": "uint256",
          "name": "tokenId",
          "type": "uint256"
        },
        {
          "internalType": "string",
          "name": "_tokenURI",
          "type": "string"
        }
      ],
      "name": "setFrogURI",
      "outputs": [],
      "stateMutability": "nonpayable",
      "type": "function"
    },
    {
      "inputs": [
        {
          "internalType": "address",
          "name": "_gameContract",
          "type": "address"
        }
      ],
      "name": "setGameContract",
      "outputs": [],
      "stateMutability": "nonpayable",
      "type": "function"
    },
    {
      "inputs": [
        {
          "internalType": "bytes4",
          "name": "interfaceId",
          "type": "bytes4"
        }
      ],
      "name": "supportsInterface",
      "outputs": [
        {
          "internalType": "bool",
          "name": "",
          "type": "bool"
        }
      ],
      "stateMutability": "view",
      "type": "function"
    },
    {
      "inputs": [],
      "name": "symbol",
      "outputs": [
        {
          "internalType": "string",
          "name": "",
          "type": "string"
        }
      ],
      "stateMutability": "view",
      "type": "function"
    },
    {
      "inputs": [
        {
          "internalType": "uint256",
          "name": "tokenId",
          "type": "uint256"
        }
      ],
      "name": "tokenURI",
      "outputs": [
        {
          "internalType": "string",
          "name": "",
          "type": "string"
        }
      ],
      "stateMutability": "view",
      "type": "function"
    },
    {
      "inputs": [
        {
          "internalType": "address",
          "name": "from",
          "type": "address"
        },
        {
          "internalType": "address",
          "name": "to",
          "type": "address"
        },
        {
          "internalType": "uint256",
          "name": "tokenId",
          "type": "uint256"
        }
      ],
      "name": "transferFrom",
      "outputs": [],
      "stateMutability": "nonpayable",
      "type": "function"
    },
    {
      "inputs": [
        {
          "internalType": "address",
          "name": "newOwner",
          "type": "address"
        }
      ],
      "name": "transferOwnership",
      "outputs": [],
      "stateMutability": "nonpayable",
      "type": "function"
    }
  ],
  "bytecode": "0x608060405260016009553480156200001657600080fd5b506040516200212938038062002129833981016040819052620000399162000138565b806040518060400160405280601181526020017043726f616b20436c6173682046726f677360781b8152506040518060400160405280600481526020016346524f4760e01b81525081600090816200009291906200020f565b506001620000a182826200020f565b5050506001600160a01b038116620000d357604051631e4fbdf760e01b81526000600482015260240160405180910390fd5b620000de81620000e6565b5050620002db565b600780546001600160a01b038381166001600160a01b0319831681179093556040519116919082907f8be0079c531659141344cd1fd0a4f28419497f9722a3daafe3b4186f6b6457e090600090a35050565b6000602082840312156200014b57600080fd5b81516001600160a01b03811681146200016357600080fd5b9392505050565b634e487b7160e01b600052604160045260246000fd5b600181811c908216806200019557607f821691505b602082108103620001b657634e487b7160e01b600052602260045260246000fd5b50919050565b601f8211156200020a57600081815260208120601f850160051c81016020861015620001e55750805b601f850160051c820191505b818110156200020657828155600101620001f1565b5050505b505050565b81516001600160401b038111156200022b576200022b6200016a565b62000243816200023c845462000180565b84620001bc565b602080601f8311600181146200027b5760008415620002625750858301515b600019600386901b1c1916600185901b17855562000206565b600085815260208120601f198616915b82811015620002ac578886015182559484019460019091019084016200028b565b5085821015620002cb5787850151600019600388901b60f8161c191681555b5050505050600190811b01905550565b611e3e80620002eb6000396000f3fe608060405234801561001057600080fd5b50600436106101585760003560e01c806370a08231116100c3578063b88d4fde1161007c578063b88d4fde146102fa578063c87b56dd1461030d578063d3f3300914610320578063da46835614610333578063e985e9c514610346578063f2fde38b1461035957600080fd5b806370a0823114610292578063715018a6146102b35780637ab17bc8146102bb5780638da5cb5b146102ce57806395d89b41146102df578063a22cb465146102e757600080fd5b8063405ebd4d11610115578063405ebd4d1461020057806342842e0e1461021357806347c8b726146102265780635d240c581461024c5780636352211e1461025f5780636b4e49051461027257600080fd5b806301ffc9a71461015d57806306fdde0314610185578063081812fc1461019a578063095ea7b3146101c55780630ce90ec2146101da57806323b872dd146101ed575b600080fd5b61017061016b36600461178d565b61036c565b60405190151581526020015b60405180910390f35b61018d61037d565b60405161017c91906117fa565b6101ad6101a836600461180d565b61040f565b6040516001600160a01b03909116815260200161017c565b6101d86101d3366004611842565b610438565b005b6101d86101e836600461180d565b610447565b6101d86101fb36600461186c565b610453565b6101d861020e3660046118a8565b6104e3565b6101d861022136600461186c565b61058b565b61023961023436600461180d565b6105ab565b60405161017c97969594939291906118c3565b6101d861025a36600461190a565b610678565b6101ad61026d36600461180d565b61073f565b61028561028036600461180d565b61074a565b60405161017c919061192c565b6102a56102a03660046118a8565b6108b9565b60405190815260200161017c565b6101d8610901565b6102a56102c9366004611a3f565b610915565b6007546001600160a01b03166101ad565b61018d610b4d565b6101d86102f5366004611aa8565b610b5c565b6101d8610308366004611ae4565b610b67565b61018d61031b36600461180d565b610b7f565b6008546101ad906001600160a01b031681565b6101d8610341366004611b60565b610b8a565b610170610354366004611ba7565b610b9c565b6101d86103673660046118a8565b610bca565b600061037782610c05565b92915050565b60606000805461038c90611bda565b80601f01602080910402602001604051908101604052809291908181526020018280546103b890611bda565b80156104055780601f106103da57610100808354040283529160200191610405565b820191906000526020600020905b8154815290600101906020018083116103e857829003601f168201915b5050505050905090565b600061041a82610c2a565b506000828152600460205260409020546001600160a01b0316610377565b610443828233610c63565b5050565b61045081610c70565b50565b6001600160a01b03821661048257604051633250574960e11b8152600060048201526024015b60405180910390fd5b600061048f838333610dbe565b9050836001600160a01b0316816001600160a01b0316146104dd576040516364283d7b60e01b81526001600160a01b0380861660048301526024820184905282166044820152606401610479565b50505050565b6104eb610e2c565b6001600160a01b0381166105415760405162461bcd60e51b815260206004820152601d60248201527f496e76616c69642067616d6520636f6e747261637420616464726573730000006044820152606401610479565b600880546001600160a01b0319166001600160a01b0383169081179091556040517f0fda64424e106ff66a5173d9c3ec7fb2f234f4488457686975a66fe3371fd0f290600090a250565b6105a683838360405180602001604052806000815250610b67565b505050565b600a6020528060005260406000206000915090508060000154908060010154908060020154908060030154908060040154908060050180546105ec90611bda565b80601f016020809104026020016040519081016040528092919081815260200182805461061890611bda565b80156106655780601f1061063a57610100808354040283529160200191610665565b820191906000526020600020905b81548152906001019060200180831161064857829003601f168201915b5050506006909301549192505060ff1687565b6000828152600260205260409020546001600160a01b03166106ac5760405162461bcd60e51b815260040161047990611c14565b6000828152600a602052604090206006015460ff166107025760405162461bcd60e51b815260206004820152601260248201527146726f67206973206e6f742061637469766560701b6044820152606401610479565b6000828152600a6020526040812060048101805491928492610725908490611c57565b909155505060048101546064116105a6576105a683610c70565b600061037782610c2a565b61078c6040518060e001604052806000815260200160008152602001600081526020016000815260200160008152602001606081526020016000151581525090565b6000828152600260205260409020546001600160a01b03166107c05760405162461bcd60e51b815260040161047990611c14565b600a60008381526020019081526020016000206040518060e0016040529081600082015481526020016001820154815260200160028201548152602001600382015481526020016004820154815260200160058201805461082090611bda565b80601f016020809104026020016040519081016040528092919081815260200182805461084c90611bda565b80156108995780601f1061086e57610100808354040283529160200191610899565b820191906000526020600020905b81548152906001019060200180831161087c57829003601f168201915b50505091835250506006919091015460ff16151560209091015292915050565b60006001600160a01b0382166108e5576040516322718ad960e21b815260006004820152602401610479565b506001600160a01b031660009081526003602052604090205490565b610909610e2c565b6109136000610e59565b565b6040805180820190915260068152654566726f677360d01b6020918201528451908501206000907fc4932cc037760ac6d5c9e74c8d43d8df8e73d776478f0e60f97fda17619dfc7514806109ae57506040805180820190915260098152684566726f676c65747360b81b6020918201528551908601207f67661ab3bc04477a4076a46d0a4394a83e5265a5e95f2f9b3c5cbf09f0e9a8bf145b80610a00575060408051808201909152600b81526a526f6775652046726f677360a81b6020918201528551908601207fd763040ef0e5ea6b4952e1f8ec4e231eaf651b374537e3600c8e7a912151460a145b610a3e5760405162461bcd60e51b815260206004820152600f60248201526e24b73b30b634b2103330b1ba34b7b760891b6044820152606401610479565b6009805460009182610a4f83611c6a565b919050559050610a5f8782610eab565b6040805160e081018252868152602080820187815282840187815260016060850181815260006080870181815260a088018f815260c089018590528a8352600a909752979020865181559351918401919091559051600283015551600382015592516004840155519091906005820190610ad99082611cc9565b5060c091909101516006909101805460ff191691151591909117905560405181906001600160a01b038916907f05b529b42acbf7bbc2e73a15c8dd9ab0d5408be9ca921034a9beaf61c7bf893c90610b32908a906117fa565b60405180910390a3610b4381610c70565b9695505050505050565b60606001805461038c90611bda565b610443338383610f10565b610b72848484610453565b6104dd3385858585610faf565b6060610377826110da565b610b92610e2c565b61044382826111e3565b6001600160a01b03918216600090815260056020908152604080832093909416825291909152205460ff1690565b610bd2610e2c565b6001600160a01b038116610bfc57604051631e4fbdf760e01b815260006004820152602401610479565b61045081610e59565b60006001600160e01b03198216632483248360e11b1480610377575061037782611233565b6000818152600260205260408120546001600160a01b03168061037757604051637e27328960e01b815260048101849052602401610479565b6105a68383836001611283565b6000818152600260205260409020546001600160a01b0316610ca45760405162461bcd60e51b815260040161047990611c14565b6000818152600a602052604090206006015460ff16610cfa5760405162461bcd60e51b815260206004820152601260248201527146726f67206973206e6f742061637469766560701b6044820152606401610479565b6000818152600a602081905260409091206003810154909111610d5f5760405162461bcd60e51b815260206004820152601960248201527f46726f6720616c7265616479206174206d6178206c6576656c000000000000006044820152606401610479565b6001816003016000828254610d749190611c57565b909155505060006004820155600381015460405190815282907f9c4bd0e3b0968376d141b4bc03160f403bfed98240c36fe816e36240b861ec499060200160405180910390a25050565b600080610dcc858585611389565b90506001600160a01b038516610e24576000848152600a602052604081208181556001810182905560028101829055600381018290556004810182905590610e176005830182611729565b50600601805460ff191690555b949350505050565b6007546001600160a01b031633146109135760405163118cdaa760e01b8152336004820152602401610479565b600780546001600160a01b038381166001600160a01b0319831681179093556040519116919082907f8be0079c531659141344cd1fd0a4f28419497f9722a3daafe3b4186f6b6457e090600090a35050565b6001600160a01b038216610ed557604051633250574960e11b815260006004820152602401610479565b6000610ee383836000610dbe565b90506001600160a01b038116156105a6576040516339e3563760e11b815260006004820152602401610479565b6001600160a01b038216610f4257604051630b61174360e31b81526001600160a01b0383166004820152602401610479565b6001600160a01b03838116600081815260056020908152604080832094871680845294825291829020805460ff191686151590811790915591519182527f17307eab39ab6107e8899845ad3d59bd9653f200f220920489ca2b5937696c31910160405180910390a3505050565b6001600160a01b0383163b156110d357604051630a85bd0160e11b81526001600160a01b0384169063150b7a0290610ff1908890889087908790600401611d89565b6020604051808303816000875af192505050801561102c575060408051601f3d908101601f1916820190925261102991810190611dbc565b60015b611095573d80801561105a576040519150601f19603f3d011682016040523d82523d6000602084013e61105f565b606091505b50805160000361108d57604051633250574960e11b81526001600160a01b0385166004820152602401610479565b805181602001fd5b6001600160e01b03198116630a85bd0160e11b146110d157604051633250574960e11b81526001600160a01b0385166004820152602401610479565b505b5050505050565b60606110e582610c2a565b50600082815260066020526040812080546110ff90611bda565b80601f016020809104026020016040519081016040528092919081815260200182805461112b90611bda565b80156111785780601f1061114d57610100808354040283529160200191611178565b820191906000526020600020905b81548152906001019060200180831161115b57829003601f168201915b50505050509050600061119660408051602081019091526000815290565b905080516000036111a8575092915050565b8151156111da5780826040516020016111c2929190611dd9565b60405160208183030381529060405292505050919050565b610e2484611482565b60008281526006602052604090206111fb8282611cc9565b506040518281527ff8e1a15aba9398e019f0b49df1a4fde98ee17ae345cb5f6b5e2c27f5033e8ce79060200160405180910390a15050565b60006001600160e01b031982166380ac58cd60e01b148061126457506001600160e01b03198216635b5e139f60e01b145b8061037757506301ffc9a760e01b6001600160e01b0319831614610377565b808061129757506001600160a01b03821615155b156113595760006112a784610c2a565b90506001600160a01b038316158015906112d35750826001600160a01b0316816001600160a01b031614155b80156112e657506112e48184610b9c565b155b1561130f5760405163a9fbf51f60e01b81526001600160a01b0384166004820152602401610479565b81156113575783856001600160a01b0316826001600160a01b03167f8c5be1e5ebec7d5bd14f71427d1e84f3dd0314c0f7b2291e5b200ac8c7c3b92560405160405180910390a45b505b5050600090815260046020526040902080546001600160a01b0319166001600160a01b0392909216919091179055565b6000828152600260205260408120546001600160a01b03908116908316156113b6576113b68184866114f7565b6001600160a01b038116156113f4576113d3600085600080611283565b6001600160a01b038116600090815260036020526040902080546000190190555b6001600160a01b03851615611423576001600160a01b0385166000908152600360205260409020805460010190555b60008481526002602052604080822080546001600160a01b0319166001600160a01b0389811691821790925591518793918516917fddf252ad1be2c89b69c2b068fc378daa952ba7f163c4a11628f55a4df523b3ef91a4949350505050565b606061148d82610c2a565b5060006114a560408051602081019091526000815290565b905060008151116114c557604051806020016040528060008152506114f0565b806114cf8461155b565b6040516020016114e0929190611dd9565b6040516020818303038152906040525b9392505050565b6115028383836115ee565b6105a6576001600160a01b03831661153057604051637e27328960e01b815260048101829052602401610479565b60405163177e802f60e01b81526001600160a01b038316600482015260248101829052604401610479565b6060600061156883611651565b600101905060008167ffffffffffffffff81111561158857611588611993565b6040519080825280601f01601f1916602001820160405280156115b2576020820181803683370190505b5090508181016020015b600019016f181899199a1a9b1b9c1cb0b131b232b360811b600a86061a8153600a85049450846115bc57509392505050565b60006001600160a01b03831615801590610e245750826001600160a01b0316846001600160a01b0316148061162857506116288484610b9c565b80610e245750506000908152600460205260409020546001600160a01b03908116911614919050565b60008072184f03e93ff9f4daa797ed6e38ed64bf6a1f0160401b83106116905772184f03e93ff9f4daa797ed6e38ed64bf6a1f0160401b830492506040015b6d04ee2d6d415b85acef810000000083106116bc576d04ee2d6d415b85acef8100000000830492506020015b662386f26fc1000083106116da57662386f26fc10000830492506010015b6305f5e10083106116f2576305f5e100830492506008015b612710831061170657612710830492506004015b60648310611718576064830492506002015b600a83106103775760010192915050565b50805461173590611bda565b6000825580601f10611745575050565b601f01602090049060005260206000209081019061045091905b80821115611773576000815560010161175f565b5090565b6001600160e01b03198116811461045057600080fd5b60006020828403121561179f57600080fd5b81356114f081611777565b60005b838110156117c55781810151838201526020016117ad565b50506000910152565b600081518084526117e68160208601602086016117aa565b601f01601f19169290920160200192915050565b6020815260006114f060208301846117ce565b60006020828403121561181f57600080fd5b5035919050565b80356001600160a01b038116811461183d57600080fd5b919050565b6000806040838503121561185557600080fd5b61185e83611826565b946020939093013593505050565b60008060006060848603121561188157600080fd5b61188a84611826565b925061189860208501611826565b9150604084013590509250925092565b6000602082840312156118ba57600080fd5b6114f082611826565b87815286602082015285604082015284606082015283608082015260e060a082015260006118f460e08301856117ce565b905082151560c083015298975050505050505050565b6000806040838503121561191d57600080fd5b50508035926020909101359150565b6020815281516020820152602082015160408201526040820151606082015260608201516080820152608082015160a0820152600060a083015160e060c084015261197b6101008401826117ce565b905060c0840151151560e08401528091505092915050565b634e487b7160e01b600052604160045260246000fd5b600067ffffffffffffffff808411156119c4576119c4611993565b604051601f8501601f19908116603f011681019082821181831017156119ec576119ec611993565b81604052809350858152868686011115611a0557600080fd5b858560208301376000602087830101525050509392505050565b600082601f830112611a3057600080fd5b6114f0838335602085016119a9565b600080600080600060a08688031215611a5757600080fd5b611a6086611826565b9450602086013567ffffffffffffffff811115611a7c57600080fd5b611a8888828901611a1f565b959895975050505060408401359360608101359360809091013592509050565b60008060408385031215611abb57600080fd5b611ac483611826565b915060208301358015158114611ad957600080fd5b809150509250929050565b60008060008060808587031215611afa57600080fd5b611b0385611826565b9350611b1160208601611826565b925060408501359150606085013567ffffffffffffffff811115611b3457600080fd5b8501601f81018713611b4557600080fd5b611b54878235602084016119a9565b91505092959194509250565b60008060408385031215611b7357600080fd5b82359150602083013567ffffffffffffffff811115611b9157600080fd5b611b9d85828601611a1f565b9150509250929050565b60008060408385031215611bba57600080fd5b611bc383611826565b9150611bd160208401611826565b90509250929050565b600181811c90821680611bee57607f821691505b602082108103611c0e57634e487b7160e01b600052602260045260246000fd5b50919050565b602080825260139082015272119c9bd9c8191bd95cc81b9bdd08195e1a5cdd606a1b604082015260600190565b634e487b7160e01b600052601160045260246000fd5b8082018082111561037757610377611c41565b600060018201611c7c57611c7c611c41565b5060010190565b601f8211156105a657600081815260208120601f850160051c81016020861015611caa5750805b601f850160051c820191505b818110156110d157828155600101611cb6565b815167ffffffffffffffff811115611ce357611ce3611993565b611cf781611cf18454611bda565b84611c83565b602080601f831160018114611d2c5760008415611d145750858301515b600019600386901b1c1916600185901b1785556110d1565b600085815260208120601f198616915b82811015611d5b57888601518255948401946001909101908401611d3c565b5085821015611d795787850151600019600388901b60f8161c191681555b5050505050600190811b01905550565b6001600160a01b0385811682528416602082015260408101839052608060608201819052600090610b43908301846117ce565b600060208284031215611dce57600080fd5b81516114f081611777565b60008351611deb8184602088016117aa565b835190830190611dff8183602088016117aa565b0194935050505056fea2646970667358221220d95c10b85a07a4e8f0cff5040113f74a81716f7a441aad7374c76a49f2d68b5964736f6c63430008140033",
  "linkReferences": {},
  "deployedLinkReferences": {}
}