{
  "_format": "hh-sol-artifact-1",
  "contractName": "PublisherContract",
  "sourceName": "contracts/PublisherContract.sol",
  "abi": [
    {
      "inputs": [
        {
          "internalType": "string",
          "name": "_network",
          "type": "string"
        }
      ],
      "stateMutability": "nonpayable",
      "type": "constructor"
    },
    {
      "anonymous": false,
      "inputs": [
        {
          "indexed": false,
          "internalType": "string",
          "name": "handle",
          "type": "string"
        }
      ],
      "name": "HandleCreated",
      "type": "event"
    },
    {
      "anonymous": false,
      "inputs": [
        {
          "indexed": false,
          "internalType": "address",
          "name": "requester",
          "type": "address"
        },
        {
          "indexed": false,
          "internalType": "string",
          "name": "name",
          "type": "string"
        },
        {
          "indexed": false,
          "internalType": "string",
          "name": "message",
          "type": "string"
        },
        {
          "indexed": false,
          "internalType": "uint256",
          "name": "payment",
          "type": "uint256"
        }
      ],
      "name": "MediaRequest",
      "type": "event"
    },
    {
      "anonymous": false,
      "inputs": [
        {
          "indexed": false,
          "internalType": "address",
          "name": "verifier",
          "type": "address"
        },
        {
          "indexed": false,
          "internalType": "string",
          "name": "Media",
          "type": "string"
        },
        {
          "indexed": false,
          "internalType": "string",
          "name": "description",
          "type": "string"
        }
      ],
      "name": "MediaUploaded",
      "type": "event"
    },
    {
      "inputs": [],
      "name": "getContractOwner",
      "outputs": [
        {
          "internalType": "address",
          "name": "",
          "type": "address"
        }
      ],
      "stateMutability": "view",
      "type": "function"
    },
    {
      "inputs": [
        {
          "internalType": "string",
          "name": "_handle",
          "type": "string"
        }
      ],
      "name": "getMetadataForHandle",
      "outputs": [
        {
          "components": [
            {
              "internalType": "string",
              "name": "handle",
              "type": "string"
            },
            {
              "internalType": "string",
              "name": "post",
              "type": "string"
            },
            {
              "internalType": "string",
              "name": "creatorName",
              "type": "string"
            },
            {
              "internalType": "string",
              "name": "creatorDescription",
              "type": "string"
            },
            {
              "internalType": "string",
              "name": "initialMediaUrls",
              "type": "string"
            },
            {
              "internalType": "address",
              "name": "creatorAddress",
              "type": "address"
            },
            {
              "components": [
                {
                  "internalType": "address",
                  "name": "requester",
                  "type": "address"
                },
                {
                  "internalType": "string",
                  "name": "message",
                  "type": "string"
                },
                {
                  "internalType": "uint256",
                  "name": "payment",
                  "type": "uint256"
                },
                {
                  "internalType": "uint256",
                  "name": "createdAt",
                  "type": "uint256"
                }
              ],
              "internalType": "struct PublisherContract.Request[]",
              "name": "requests",
              "type": "tuple[]"
            },
            {
              "internalType": "bool",
              "name": "active",
              "type": "bool"
            },
            {
              "internalType": "uint256",
              "name": "createdAt",
              "type": "uint256"
            },
            {
              "internalType": "bool",
              "name": "isValue",
              "type": "bool"
            },
            {
              "internalType": "uint256",
              "name": "requestCount",
              "type": "uint256"
            },
            {
              "components": [
                {
                  "internalType": "address",
                  "name": "requester",
                  "type": "address"
                },
                {
                  "internalType": "string",
                  "name": "message",
                  "type": "string"
                },
                {
                  "internalType": "uint256",
                  "name": "payment",
                  "type": "uint256"
                },
                {
                  "internalType": "uint256",
                  "name": "createdAt",
                  "type": "uint256"
                }
              ],
              "internalType": "struct PublisherContract.Request",
              "name": "lastRequest",
              "type": "tuple"
            }
          ],
          "internalType": "struct PublisherContract.Metadata",
          "name": "",
          "type": "tuple"
        }
      ],
      "stateMutability": "view",
      "type": "function"
    },
    {
      "inputs": [
        {
          "internalType": "string",
          "name": "_handle",
          "type": "string"
        }
      ],
      "name": "getMetadataUnchecked",
      "outputs": [
        {
          "components": [
            {
              "internalType": "string",
              "name": "handle",
              "type": "string"
            },
            {
              "internalType": "string",
              "name": "post",
              "type": "string"
            },
            {
              "internalType": "string",
              "name": "creatorName",
              "type": "string"
            },
            {
              "internalType": "string",
              "name": "creatorDescription",
              "type": "string"
            },
            {
              "internalType": "string",
              "name": "initialMediaUrls",
              "type": "string"
            },
            {
              "internalType": "address",
              "name": "creatorAddress",
              "type": "address"
            },
            {
              "components": [
                {
                  "internalType": "address",
                  "name": "requester",
                  "type": "address"
                },
                {
                  "internalType": "string",
                  "name": "message",
                  "type": "string"
                },
                {
                  "internalType": "uint256",
                  "name": "payment",
                  "type": "uint256"
                },
                {
                  "internalType": "uint256",
                  "name": "createdAt",
                  "type": "uint256"
                }
              ],
              "internalType": "struct PublisherContract.Request[]",
              "name": "requests",
              "type": "tuple[]"
            },
            {
              "internalType": "bool",
              "name": "active",
              "type": "bool"
            },
            {
              "internalType": "uint256",
              "name": "createdAt",
              "type": "uint256"
            },
            {
              "internalType": "bool",
              "name": "isValue",
              "type": "bool"
            },
            {
              "internalType": "uint256",
              "name": "requestCount",
              "type": "uint256"
            },
            {
              "components": [
                {
                  "internalType": "address",
                  "name": "requester",
                  "type": "address"
                },
                {
                  "internalType": "string",
                  "name": "message",
                  "type": "string"
                },
                {
                  "internalType": "uint256",
                  "name": "payment",
                  "type": "uint256"
                },
                {
                  "internalType": "uint256",
                  "name": "createdAt",
                  "type": "uint256"
                }
              ],
              "internalType": "struct PublisherContract.Request",
              "name": "lastRequest",
              "type": "tuple"
            }
          ],
          "internalType": "struct PublisherContract.Metadata",
          "name": "",
          "type": "tuple"
        }
      ],
      "stateMutability": "view",
      "type": "function"
    },
    {
      "inputs": [
        {
          "internalType": "string",
          "name": "_handle",
          "type": "string"
        },
        {
          "internalType": "string",
          "name": "_message",
          "type": "string"
        }
      ],
      "name": "makeRequest",
      "outputs": [],
      "stateMutability": "payable",
      "type": "function"
    },
    {
      "inputs": [
        {
          "internalType": "string",
          "name": "_handle",
          "type": "string"
        },
        {
          "internalType": "string",
          "name": "_contentId",
          "type": "string"
        },
        {
          "internalType": "string",
          "name": "_description",
          "type": "string"
        }
      ],
      "name": "makeUpload",
      "outputs": [
        {
          "components": [
            {
              "internalType": "string",
              "name": "handle",
              "type": "string"
            },
            {
              "internalType": "string",
              "name": "post",
              "type": "string"
            },
            {
              "internalType": "string",
              "name": "creatorName",
              "type": "string"
            },
            {
              "internalType": "string",
              "name": "creatorDescription",
              "type": "string"
            },
            {
              "internalType": "string",
              "name": "initialMediaUrls",
              "type": "string"
            },
            {
              "internalType": "address",
              "name": "creatorAddress",
              "type": "address"
            },
            {
              "components": [
                {
                  "internalType": "address",
                  "name": "requester",
                  "type": "address"
                },
                {
                  "internalType": "string",
                  "name": "message",
                  "type": "string"
                },
                {
                  "internalType": "uint256",
                  "name": "payment",
                  "type": "uint256"
                },
                {
                  "internalType": "uint256",
                  "name": "createdAt",
                  "type": "uint256"
                }
              ],
              "internalType": "struct PublisherContract.Request[]",
              "name": "requests",
              "type": "tuple[]"
            },
            {
              "internalType": "bool",
              "name": "active",
              "type": "bool"
            },
            {
              "internalType": "uint256",
              "name": "createdAt",
              "type": "uint256"
            },
            {
              "internalType": "bool",
              "name": "isValue",
              "type": "bool"
            },
            {
              "internalType": "uint256",
              "name": "requestCount",
              "type": "uint256"
            },
            {
              "components": [
                {
                  "internalType": "address",
                  "name": "requester",
                  "type": "address"
                },
                {
                  "internalType": "string",
                  "name": "message",
                  "type": "string"
                },
                {
                  "internalType": "uint256",
                  "name": "payment",
                  "type": "uint256"
                },
                {
                  "internalType": "uint256",
                  "name": "createdAt",
                  "type": "uint256"
                }
              ],
              "internalType": "struct PublisherContract.Request",
              "name": "lastRequest",
              "type": "tuple"
            }
          ],
          "internalType": "struct PublisherContract.Metadata",
          "name": "",
          "type": "tuple"
        }
      ],
      "stateMutability": "nonpayable",
      "type": "function"
    },
    {
      "inputs": [],
      "name": "network",
      "outputs": [
        {
          "internalType": "string",
          "name": "",
          "type": "string"
        }
      ],
      "stateMutability": "view",
      "type": "function"
    },
    {
      "inputs": [
        {
          "internalType": "string",
          "name": "_handle",
          "type": "string"
        },
        {
          "internalType": "string",
          "name": "_creatorName",
          "type": "string"
        },
        {
          "internalType": "string",
          "name": "_creatorDescription",
          "type": "string"
        },
        {
          "internalType": "string",
          "name": "_initialMediaUrls",
          "type": "string"
        }
      ],
      "name": "registerHandle",
      "outputs": [
        {
          "components": [
            {
              "internalType": "string",
              "name": "handle",
              "type": "string"
            },
            {
              "internalType": "string",
              "name": "post",
              "type": "string"
            },
            {
              "internalType": "string",
              "name": "creatorName",
              "type": "string"
            },
            {
              "internalType": "string",
              "name": "creatorDescription",
              "type": "string"
            },
            {
              "internalType": "string",
              "name": "initialMediaUrls",
              "type": "string"
            },
            {
              "internalType": "address",
              "name": "creatorAddress",
              "type": "address"
            },
            {
              "components": [
                {
                  "internalType": "address",
                  "name": "requester",
                  "type": "address"
                },
                {
                  "internalType": "string",
                  "name": "message",
                  "type": "string"
                },
                {
                  "internalType": "uint256",
                  "name": "payment",
                  "type": "uint256"
                },
                {
                  "internalType": "uint256",
                  "name": "createdAt",
                  "type": "uint256"
                }
              ],
              "internalType": "struct PublisherContract.Request[]",
              "name": "requests",
              "type": "tuple[]"
            },
            {
              "internalType": "bool",
              "name": "active",
              "type": "bool"
            },
            {
              "internalType": "uint256",
              "name": "createdAt",
              "type": "uint256"
            },
            {
              "internalType": "bool",
              "name": "isValue",
              "type": "bool"
            },
            {
              "internalType": "uint256",
              "name": "requestCount",
              "type": "uint256"
            },
            {
              "components": [
                {
                  "internalType": "address",
                  "name": "requester",
                  "type": "address"
                },
                {
                  "internalType": "string",
                  "name": "message",
                  "type": "string"
                },
                {
                  "internalType": "uint256",
                  "name": "payment",
                  "type": "uint256"
                },
                {
                  "internalType": "uint256",
                  "name": "createdAt",
                  "type": "uint256"
                }
              ],
              "internalType": "struct PublisherContract.Request",
              "name": "lastRequest",
              "type": "tuple"
            }
          ],
          "internalType": "struct PublisherContract.Metadata",
          "name": "",
          "type": "tuple"
        }
      ],
      "stateMutability": "nonpayable",
      "type": "function"
    }
  ],
  "bytecode": "0x60806040523480156200001157600080fd5b506040516200272d3803806200272d833981016040819052620000349162000072565b600080546001600160a01b031916331790556010620000548282620001d6565b5050620002a2565b634e487b7160e01b600052604160045260246000fd5b600060208083850312156200008657600080fd5b82516001600160401b03808211156200009e57600080fd5b818501915085601f830112620000b357600080fd5b815181811115620000c857620000c86200005c565b604051601f8201601f19908116603f01168101908382118183101715620000f357620000f36200005c565b8160405282815288868487010111156200010c57600080fd5b600093505b8284101562000130578484018601518185018701529285019262000111565b600086848301015280965050505050505092915050565b600181811c908216806200015c57607f821691505b6020821081036200017d57634e487b7160e01b600052602260045260246000fd5b50919050565b601f821115620001d157600081815260208120601f850160051c81016020861015620001ac5750805b601f850160051c820191505b81811015620001cd57828155600101620001b8565b5050505b505050565b81516001600160401b03811115620001f257620001f26200005c565b6200020a8162000203845462000147565b8462000183565b602080601f831160018114620002425760008415620002295750858301515b600019600386901b1c1916600185901b178555620001cd565b600085815260208120601f198616915b82811015620002735788860151825594840194600190910190840162000252565b5085821015620002925787850151600019600388901b60f8161c191681555b5050505050600190811b01905550565b61247b80620002b26000396000f3fe6080604052600436106100705760003560e01c80636739afca1161004e5780636739afca146100f35780639a52c95614610115578063dba2a8af14610135578063dcc108c81461014a57600080fd5b80633d00565c14610075578063441ad1ce146100ab578063442890d5146100cb575b600080fd5b34801561008157600080fd5b50610095610090366004611d73565b61016a565b6040516100a29190611e9c565b60405180910390f35b3480156100b757600080fd5b506100956100c6366004611fd4565b6101f8565b3480156100d757600080fd5b506000546040516001600160a01b0390911681526020016100a2565b3480156100ff57600080fd5b506101086107f5565b6040516100a2919061205c565b34801561012157600080fd5b50610095610130366004611d73565b610883565b610148610143366004612076565b610fed565b005b34801561015657600080fd5b506100956101653660046120da565b6112ac565b610172611a81565b6011826040516101829190612187565b9081526040519081900360200190206009015460ff166101e95760405162461bcd60e51b815260206004820152601b60248201527f43726561746f72207061676520646f6573206e6f74206578697374000000000060448201526064015b60405180910390fd5b6101f282610883565b92915050565b610200611a81565b600061020b8561016a565b90508060a001516001600160a01b0316336001600160a01b0316146102915760405162461bcd60e51b815260206004820152603660248201527f4f6e6c7920746865206f776e6572206f6620746869732068616e646c652063616044820152751b881d5c1b1bd859081359591a584818dbdb9d195b9d60521b60648201526084016101e0565b7fcd0eda0c97af4a174dd10204c8894d4b5019f927cdef054c323e0c53fd6ce3a63385856040516102c4939291906121a3565b60405180910390a16001604051806101800160405290816000820180546102ea906121d9565b80601f0160208091040260200160405190810160405280929190818152602001828054610316906121d9565b80156103635780601f1061033857610100808354040283529160200191610363565b820191906000526020600020905b81548152906001019060200180831161034657829003601f168201915b5050505050815260200160018201805461037c906121d9565b80601f01602080910402602001604051908101604052809291908181526020018280546103a8906121d9565b80156103f55780601f106103ca576101008083540402835291602001916103f5565b820191906000526020600020905b8154815290600101906020018083116103d857829003601f168201915b5050505050815260200160028201805461040e906121d9565b80601f016020809104026020016040519081016040528092919081815260200182805461043a906121d9565b80156104875780601f1061045c57610100808354040283529160200191610487565b820191906000526020600020905b81548152906001019060200180831161046a57829003601f168201915b505050505081526020016003820180546104a0906121d9565b80601f01602080910402602001604051908101604052809291908181526020018280546104cc906121d9565b80156105195780601f106104ee57610100808354040283529160200191610519565b820191906000526020600020905b8154815290600101906020018083116104fc57829003601f168201915b50505050508152602001600482018054610532906121d9565b80601f016020809104026020016040519081016040528092919081815260200182805461055e906121d9565b80156105ab5780601f10610580576101008083540402835291602001916105ab565b820191906000526020600020905b81548152906001019060200180831161058e57829003601f168201915b505050918352505060058201546001600160a01b0316602080830191909152600683018054604080518285028101850182528281529401939260009084015b828210156106d857600084815260209081902060408051608081019091526004850290910180546001600160a01b031682526001810180549293919291840191610633906121d9565b80601f016020809104026020016040519081016040528092919081815260200182805461065f906121d9565b80156106ac5780601f10610681576101008083540402835291602001916106ac565b820191906000526020600020905b81548152906001019060200180831161068f57829003601f168201915b5050505050815260200160028201548152602001600382015481525050815260200190600101906105ea565b50505090825250600782015460ff90811615156020808401919091526008840154604080850191909152600985015490921615156060840152600a8401546080808501919091528251908101909252600b840180546001600160a01b03168352600c8501805460a0909501949192840191610752906121d9565b80601f016020809104026020016040519081016040528092919081815260200182805461077e906121d9565b80156107cb5780601f106107a0576101008083540402835291602001916107cb565b820191906000526020600020905b8154815290600101906020018083116107ae57829003601f168201915b50505091835250506002820154602082015260039091015460409091015290525095945050505050565b60108054610802906121d9565b80601f016020809104026020016040519081016040528092919081815260200182805461082e906121d9565b801561087b5780601f106108505761010080835404028352916020019161087b565b820191906000526020600020905b81548152906001019060200180831161085e57829003601f168201915b505050505081565b61088b611a81565b600060118360405161089d9190612187565b9081526020016040518091039020604051806101800160405290816000820180546108c7906121d9565b80601f01602080910402602001604051908101604052809291908181526020018280546108f3906121d9565b80156109405780601f1061091557610100808354040283529160200191610940565b820191906000526020600020905b81548152906001019060200180831161092357829003601f168201915b50505050508152602001600182018054610959906121d9565b80601f0160208091040260200160405190810160405280929190818152602001828054610985906121d9565b80156109d25780601f106109a7576101008083540402835291602001916109d2565b820191906000526020600020905b8154815290600101906020018083116109b557829003601f168201915b505050505081526020016002820180546109eb906121d9565b80601f0160208091040260200160405190810160405280929190818152602001828054610a17906121d9565b8015610a645780601f10610a3957610100808354040283529160200191610a64565b820191906000526020600020905b815481529060010190602001808311610a4757829003601f168201915b50505050508152602001600382018054610a7d906121d9565b80601f0160208091040260200160405190810160405280929190818152602001828054610aa9906121d9565b8015610af65780601f10610acb57610100808354040283529160200191610af6565b820191906000526020600020905b815481529060010190602001808311610ad957829003601f168201915b50505050508152602001600482018054610b0f906121d9565b80601f0160208091040260200160405190810160405280929190818152602001828054610b3b906121d9565b8015610b885780601f10610b5d57610100808354040283529160200191610b88565b820191906000526020600020905b815481529060010190602001808311610b6b57829003601f168201915b505050918352505060058201546001600160a01b0316602080830191909152600683018054604080518285028101850182528281529401939260009084015b82821015610cb557600084815260209081902060408051608081019091526004850290910180546001600160a01b031682526001810180549293919291840191610c10906121d9565b80601f0160208091040260200160405190810160405280929190818152602001828054610c3c906121d9565b8015610c895780601f10610c5e57610100808354040283529160200191610c89565b820191906000526020600020905b815481529060010190602001808311610c6c57829003601f168201915b505050505081526020016002820154815260200160038201548152505081526020019060010190610bc7565b50505090825250600782015460ff90811615156020808401919091526008840154604080850191909152600985015490921615156060840152600a8401546080808501919091528251908101909252600b840180546001600160a01b03168352600c8501805460a0909501949192840191610d2f906121d9565b80601f0160208091040260200160405190810160405280929190818152602001828054610d5b906121d9565b8015610da85780601f10610d7d57610100808354040283529160200191610da8565b820191906000526020600020905b815481529060010190602001808311610d8b57829003601f168201915b5050505050815260200160028201548152602001600382015481525050815250509050601283604051610ddb9190612187565b9081526020016040518091039020805480602002602001604051908101604052809291908181526020016000905b82821015610ef757600084815260209081902060408051608081019091526004850290910180546001600160a01b031682526001810180549293919291840191610e52906121d9565b80601f0160208091040260200160405190810160405280929190818152602001828054610e7e906121d9565b8015610ecb5780601f10610ea057610100808354040283529160200191610ecb565b820191906000526020600020905b815481529060010190602001808311610eae57829003601f168201915b505050505081526020016002820154815260200160038201548152505081526020019060010190610e09565b5050505060c0820152604051601390610f11908590612187565b9081526040805191829003602090810183206080840190925281546001600160a01b0316835260018201805491840191610f4a906121d9565b80601f0160208091040260200160405190810160405280929190818152602001828054610f76906121d9565b8015610fc35780601f10610f9857610100808354040283529160200191610fc3565b820191906000526020600020905b815481529060010190602001808311610fa657829003601f168201915b50505091835250506002820154602082015260039091015460409091015261016082015292915050565b6000601183604051610fff9190612187565b908152604051908190036020019020600981015490915060ff1661107b5760405162461bcd60e51b815260206004820152602d60248201527f412063726561746f72207061676520666f7220746869732068616e646c65206460448201526c1bd95cc81b9bdd08195e1a5cdd609a1b60648201526084016101e0565b6005810154339034906001600160a01b031682036110ea5760405162461bcd60e51b815260206004820152602660248201527f43726561746f722063616e6e6f742072657175657374207468656972206f776e604482015265204d6564696160d01b60648201526084016101e0565b801561112e5760058301546040516001600160a01b039091169082156108fc029083906000818181858888f1935050505015801561112c573d6000803e3d6000fd5b505b7fef2ce3dbf8554d44daec3e3ee4374fa7a01f73f48d008dbe2de719231371cee3828686846040516111639493929190612213565b60405180910390a1600060128660405161117d9190612187565b9081526040805191829003602090810183206080840183526001600160a01b0380881685528483018a815293850187905242606086015281546001818101845560008481529490942086516004909202018054919092166001600160a01b031990911617815592519094508392918201906111f890826122aa565b5060408201518160020155606082015181600301555050816012886040516112209190612187565b908152604051908190036020019020815461123b9290611b20565b508060138860405161124d9190612187565b90815260405160209181900382019020825181546001600160a01b0319166001600160a01b0390911617815590820151600182019061128c90826122aa565b506040820151600282015560609091015160039091015550505050505050565b6112b4611a81565b60006011866040516112c69190612187565b908152604051908190036020019020600981015490915060ff16156113435760405162461bcd60e51b815260206004820152602d60248201527f412063726561746f72207061676520666f7220746869732068616e646c65206160448201526c6c72656164792065786973747360981b60648201526084016101e0565b8061134e87826122aa565b506002810161135d86826122aa565b506003810161136c85826122aa565b506004810161137b84826122aa565b506005810180546001600160a01b0319163317905560078101805460ff199081166001908117909255426008840155600983018054909116909117905560405181906011906113cb908990612187565b908152604051908190036020019020806113e5838261236a565b506001818101906113f89084018261236a565b5060028181019061140b9084018261236a565b5060038181019061141e9084018261236a565b506004818101906114319084018261236a565b5060058281015490820180546001600160a01b0319166001600160a01b039092169190911790556006808301805461146c9284019190611bb9565b50600782810154908201805460ff928316151560ff19918216179091556008808501549084015560098085015490840180549190931615159116179055600a8083015490820155600b808301805491830180546001600160a01b0319166001600160a01b0390931692909217825590600c808401906114ed9086018261236a565b506002828101549082015560039182015491015550506040517f178234631537bd432b90bbdb86eb115c08f3373e38362b70ed61ac4d1a80ccd29061153390889061205c565b60405180910390a160118660405161154b9190612187565b908152602001604051809103902060405180610180016040529081600082018054611575906121d9565b80601f01602080910402602001604051908101604052809291908181526020018280546115a1906121d9565b80156115ee5780601f106115c3576101008083540402835291602001916115ee565b820191906000526020600020905b8154815290600101906020018083116115d157829003601f168201915b50505050508152602001600182018054611607906121d9565b80601f0160208091040260200160405190810160405280929190818152602001828054611633906121d9565b80156116805780601f1061165557610100808354040283529160200191611680565b820191906000526020600020905b81548152906001019060200180831161166357829003601f168201915b50505050508152602001600282018054611699906121d9565b80601f01602080910402602001604051908101604052809291908181526020018280546116c5906121d9565b80156117125780601f106116e757610100808354040283529160200191611712565b820191906000526020600020905b8154815290600101906020018083116116f557829003601f168201915b5050505050815260200160038201805461172b906121d9565b80601f0160208091040260200160405190810160405280929190818152602001828054611757906121d9565b80156117a45780601f10611779576101008083540402835291602001916117a4565b820191906000526020600020905b81548152906001019060200180831161178757829003601f168201915b505050505081526020016004820180546117bd906121d9565b80601f01602080910402602001604051908101604052809291908181526020018280546117e9906121d9565b80156118365780601f1061180b57610100808354040283529160200191611836565b820191906000526020600020905b81548152906001019060200180831161181957829003601f168201915b505050918352505060058201546001600160a01b0316602080830191909152600683018054604080518285028101850182528281529401939260009084015b8282101561196357600084815260209081902060408051608081019091526004850290910180546001600160a01b0316825260018101805492939192918401916118be906121d9565b80601f01602080910402602001604051908101604052809291908181526020018280546118ea906121d9565b80156119375780601f1061190c57610100808354040283529160200191611937565b820191906000526020600020905b81548152906001019060200180831161191a57829003601f168201915b505050505081526020016002820154815260200160038201548152505081526020019060010190611875565b50505090825250600782015460ff90811615156020808401919091526008840154604080850191909152600985015490921615156060840152600a8401546080808501919091528251908101909252600b840180546001600160a01b03168352600c8501805460a09095019491928401916119dd906121d9565b80601f0160208091040260200160405190810160405280929190818152602001828054611a09906121d9565b8015611a565780601f10611a2b57610100808354040283529160200191611a56565b820191906000526020600020905b815481529060010190602001808311611a3957829003601f168201915b5050509183525050600282015460208201526003909101546040909101529052509695505050505050565b604051806101800160405280606081526020016060815260200160608152602001606081526020016060815260200160006001600160a01b03168152602001606081526020016000151581526020016000815260200160001515815260200160008152602001611b1b604051806080016040528060006001600160a01b031681526020016060815260200160008152602001600081525090565b905290565b828054828255906000526020600020906004028101928215611ba95760005260206000209160040282015b82811115611ba957825482546001600160a01b0319166001600160a01b039091161782558282600180820190611b839084018261236a565b506002820154816002015560038201548160030155505091600401919060040190611b4b565b50611bb5929150611c42565b5090565b828054828255906000526020600020906004028101928215611ba95760005260206000209160040282015b82811115611ba957825482546001600160a01b0319166001600160a01b039091161782558282600180820190611c1c9084018261236a565b506002820154816002015560038201548160030155505091600401919060040190611be4565b80821115611bb55780546001600160a01b03191681556000611c676001830182611c7e565b506000600282018190556003820155600401611c42565b508054611c8a906121d9565b6000825580601f10611c9a575050565b601f016020900490600052602060002090810190611cb89190611cbb565b50565b5b80821115611bb55760008155600101611cbc565b634e487b7160e01b600052604160045260246000fd5b600082601f830112611cf757600080fd5b813567ffffffffffffffff80821115611d1257611d12611cd0565b604051601f8301601f19908116603f01168101908282118183101715611d3a57611d3a611cd0565b81604052838152866020858801011115611d5357600080fd5b836020870160208301376000602085830101528094505050505092915050565b600060208284031215611d8557600080fd5b813567ffffffffffffffff811115611d9c57600080fd5b611da884828501611ce6565b949350505050565b60005b83811015611dcb578181015183820152602001611db3565b50506000910152565b60008151808452611dec816020860160208601611db0565b601f01601f19169290920160200192915050565b60018060a01b0381511682526000602082015160806020850152611e276080850182611dd4565b905060408301516040850152606083015160608501528091505092915050565b600081518084526020808501808196508360051b8101915082860160005b85811015611e8f578284038952611e7d848351611e00565b98850198935090840190600101611e65565b5091979650505050505050565b6020815260008251610180806020850152611ebb6101a0850183611dd4565b91506020850151601f1980868503016040870152611ed98483611dd4565b93506040870151915080868503016060870152611ef68483611dd4565b93506060870151915080868503016080870152611f138483611dd4565b935060808701519150808685030160a0870152611f308483611dd4565b935060a08701519150611f4e60c08701836001600160a01b03169052565b60c08701519150808685030160e0870152611f698483611e47565b935060e08701519150610100611f828188018415159052565b870151610120878101919091528701519150610140611fa48188018415159052565b87015161016087810191909152870151868503909101838701529050611fca8382611e00565b9695505050505050565b600080600060608486031215611fe957600080fd5b833567ffffffffffffffff8082111561200157600080fd5b61200d87838801611ce6565b9450602086013591508082111561202357600080fd5b61202f87838801611ce6565b9350604086013591508082111561204557600080fd5b5061205286828701611ce6565b9150509250925092565b60208152600061206f6020830184611dd4565b9392505050565b6000806040838503121561208957600080fd5b823567ffffffffffffffff808211156120a157600080fd5b6120ad86838701611ce6565b935060208501359150808211156120c357600080fd5b506120d085828601611ce6565b9150509250929050565b600080600080608085870312156120f057600080fd5b843567ffffffffffffffff8082111561210857600080fd5b61211488838901611ce6565b9550602087013591508082111561212a57600080fd5b61213688838901611ce6565b9450604087013591508082111561214c57600080fd5b61215888838901611ce6565b9350606087013591508082111561216e57600080fd5b5061217b87828801611ce6565b91505092959194509250565b60008251612199818460208701611db0565b9190910192915050565b6001600160a01b03841681526060602082018190526000906121c790830185611dd4565b8281036040840152611fca8185611dd4565b600181811c908216806121ed57607f821691505b60208210810361220d57634e487b7160e01b600052602260045260246000fd5b50919050565b6001600160a01b038516815260806020820181905260009061223790830186611dd4565b82810360408401526122498186611dd4565b91505082606083015295945050505050565b601f8211156122a557600081815260208120601f850160051c810160208610156122825750805b601f850160051c820191505b818110156122a15782815560010161228e565b5050505b505050565b815167ffffffffffffffff8111156122c4576122c4611cd0565b6122d8816122d284546121d9565b8461225b565b602080601f83116001811461230d57600084156122f55750858301515b600019600386901b1c1916600185901b1785556122a1565b600085815260208120601f198616915b8281101561233c5788860151825594840194600190910190840161231d565b508582101561235a5787850151600019600388901b60f8161c191681555b5050505050600190811b01905550565b818103612375575050565b61237f82546121d9565b67ffffffffffffffff81111561239757612397611cd0565b6123a5816122d284546121d9565b6000601f8211600181146123d957600083156123c15750848201545b600019600385901b1c1916600184901b17845561243e565b600085815260209020601f19841690600086815260209020845b8381101561241357828601548255600195860195909101906020016123f3565b50858310156124315781850154600019600388901b60f8161c191681555b50505060018360011b0184555b505050505056fea2646970667358221220d791e9c2f943a3fd2cff02aa395a2bf2d19a92da9bf5f114421366a0039f36be64736f6c63430008140033",
  "linkReferences": {},
  "deployedLinkReferences": {}
}