{
  "_format": "hh-sol-artifact-1",
  "contractName": "CroakToken",
  "sourceName": "contracts/CroakToken.sol",
  "abi": [
    {
      "inputs": [
        {
          "internalType": "address",
          "name": "initialOwner",
          "type": "address"
        }
      ],
      "stateMutability": "nonpayable",
      "type": "constructor"
    },
    {
      "inputs": [
        {
          "internalType": "address",
          "name": "spender",
          "type": "address"
        },
        {
          "internalType": "uint256",
          "name": "allowance",
          "type": "uint256"
        },
        {
          "internalType": "uint256",
          "name": "needed",
          "type": "uint256"
        }
      ],
      "name": "ERC20InsufficientAllowance",
      "type": "error"
    },
    {
      "inputs": [
        {
          "internalType": "address",
          "name": "sender",
          "type": "address"
        },
        {
          "internalType": "uint256",
          "name": "balance",
          "type": "uint256"
        },
        {
          "internalType": "uint256",
          "name": "needed",
          "type": "uint256"
        }
      ],
      "name": "ERC20InsufficientBalance",
      "type": "error"
    },
    {
      "inputs": [
        {
          "internalType": "address",
          "name": "approver",
          "type": "address"
        }
      ],
      "name": "ERC20InvalidApprover",
      "type": "error"
    },
    {
      "inputs": [
        {
          "internalType": "address",
          "name": "receiver",
          "type": "address"
        }
      ],
      "name": "ERC20InvalidReceiver",
      "type": "error"
    },
    {
      "inputs": [
        {
          "internalType": "address",
          "name": "sender",
          "type": "address"
        }
      ],
      "name": "ERC20InvalidSender",
      "type": "error"
    },
    {
      "inputs": [
        {
          "internalType": "address",
          "name": "spender",
          "type": "address"
        }
      ],
      "name": "ERC20InvalidSpender",
      "type": "error"
    },
    {
      "inputs": [],
      "name": "EnforcedPause",
      "type": "error"
    },
    {
      "inputs": [],
      "name": "ExpectedPause",
      "type": "error"
    },
    {
      "inputs": [
        {
          "internalType": "address",
          "name": "owner",
          "type": "address"
        }
      ],
      "name": "OwnableInvalidOwner",
      "type": "error"
    },
    {
      "inputs": [
        {
          "internalType": "address",
          "name": "account",
          "type": "address"
        }
      ],
      "name": "OwnableUnauthorizedAccount",
      "type": "error"
    },
    {
      "anonymous": false,
      "inputs": [
        {
          "indexed": true,
          "internalType": "address",
          "name": "owner",
          "type": "address"
        },
        {
          "indexed": true,
          "internalType": "address",
          "name": "spender",
          "type": "address"
        },
        {
          "indexed": false,
          "internalType": "uint256",
          "name": "value",
          "type": "uint256"
        }
      ],
      "name": "Approval",
      "type": "event"
    },
    {
      "anonymous": false,
      "inputs": [
        {
          "indexed": true,
          "internalType": "address",
          "name": "gameContract",
          "type": "address"
        }
      ],
      "name": "GameContractSet",
      "type": "event"
    },
    {
      "anonymous": false,
      "inputs": [
        {
          "indexed": true,
          "internalType": "address",
          "name": "previousOwner",
          "type": "address"
        },
        {
          "indexed": true,
          "internalType": "address",
          "name": "newOwner",
          "type": "address"
        }
      ],
      "name": "OwnershipTransferred",
      "type": "event"
    },
    {
      "anonymous": false,
      "inputs": [
        {
          "indexed": false,
          "internalType": "address",
          "name": "account",
          "type": "address"
        }
      ],
      "name": "Paused",
      "type": "event"
    },
    {
      "anonymous": false,
      "inputs": [
        {
          "indexed": true,
          "internalType": "address",
          "name": "user",
          "type": "address"
        },
        {
          "indexed": false,
          "internalType": "uint256",
          "name": "amount",
          "type": "uint256"
        }
      ],
      "name": "TokensStaked",
      "type": "event"
    },
    {
      "anonymous": false,
      "inputs": [
        {
          "indexed": true,
          "internalType": "address",
          "name": "user",
          "type": "address"
        },
        {
          "indexed": false,
          "internalType": "uint256",
          "name": "amount",
          "type": "uint256"
        }
      ],
      "name": "TokensUnstaked",
      "type": "event"
    },
    {
      "anonymous": false,
      "inputs": [
        {
          "indexed": true,
          "internalType": "address",
          "name": "from",
          "type": "address"
        },
        {
          "indexed": true,
          "internalType": "address",
          "name": "to",
          "type": "address"
        },
        {
          "indexed": false,
          "internalType": "uint256",
          "name": "value",
          "type": "uint256"
        }
      ],
      "name": "Transfer",
      "type": "event"
    },
    {
      "anonymous": false,
      "inputs": [
        {
          "indexed": false,
          "internalType": "address",
          "name": "account",
          "type": "address"
        }
      ],
      "name": "Unpaused",
      "type": "event"
    },
    {
      "inputs": [
        {
          "internalType": "address",
          "name": "owner",
          "type": "address"
        },
        {
          "internalType": "address",
          "name": "spender",
          "type": "address"
        }
      ],
      "name": "allowance",
      "outputs": [
        {
          "internalType": "uint256",
          "name": "",
          "type": "uint256"
        }
      ],
      "stateMutability": "view",
      "type": "function"
    },
    {
      "inputs": [
        {
          "internalType": "address",
          "name": "spender",
          "type": "address"
        },
        {
          "internalType": "uint256",
          "name": "value",
          "type": "uint256"
        }
      ],
      "name": "approve",
      "outputs": [
        {
          "internalType": "bool",
          "name": "",
          "type": "bool"
        }
      ],
      "stateMutability": "nonpayable",
      "type": "function"
    },
    {
      "inputs": [
        {
          "internalType": "address",
          "name": "account",
          "type": "address"
        }
      ],
      "name": "balanceOf",
      "outputs": [
        {
          "internalType": "uint256",
          "name": "",
          "type": "uint256"
        }
      ],
      "stateMutability": "view",
      "type": "function"
    },
    {
      "inputs": [],
      "name": "decimals",
      "outputs": [
        {
          "internalType": "uint8",
          "name": "",
          "type": "uint8"
        }
      ],
      "stateMutability": "view",
      "type": "function"
    },
    {
      "inputs": [],
      "name": "gameContract",
      "outputs": [
        {
          "internalType": "address",
          "name": "",
          "type": "address"
        }
      ],
      "stateMutability": "view",
      "type": "function"
    },
    {
      "inputs": [
        {
          "internalType": "address",
          "name": "user",
          "type": "address"
        }
      ],
      "name": "getStakedBalance",
      "outputs": [
        {
          "internalType": "uint256",
          "name": "",
          "type": "uint256"
        }
      ],
      "stateMutability": "view",
      "type": "function"
    },
    {
      "inputs": [],
      "name": "name",
      "outputs": [
        {
          "internalType": "string",
          "name": "",
          "type": "string"
        }
      ],
      "stateMutability": "view",
      "type": "function"
    },
    {
      "inputs": [],
      "name": "owner",
      "outputs": [
        {
          "internalType": "address",
          "name": "",
          "type": "address"
        }
      ],
      "stateMutability": "view",
      "type": "function"
    },
    {
      "inputs": [],
      "name": "pause",
      "outputs": [],
      "stateMutability": "nonpayable",
      "type": "function"
    },
    {
      "inputs": [],
      "name": "paused",
      "outputs": [
        {
          "internalType": "bool",
          "name": "",
          "type": "bool"
        }
      ],
      "stateMutability": "view",
      "type": "function"
    },
    {
      "inputs": [],
      "name": "renounceOwnership",
      "outputs": [],
      "stateMutability": "nonpayable",
      "type": "function"
    },
    {
      "inputs": [
        {
          "internalType": "address",
          "name": "_gameContract",
          "type": "address"
        }
      ],
      "name": "setGameContract",
      "outputs": [],
      "stateMutability": "nonpayable",
      "type": "function"
    },
    {
      "inputs": [
        {
          "internalType": "uint256",
          "name": "amount",
          "type": "uint256"
        }
      ],
      "name": "stake",
      "outputs": [],
      "stateMutability": "nonpayable",
      "type": "function"
    },
    {
      "inputs": [
        {
          "internalType": "address",
          "name": "",
          "type": "address"
        }
      ],
      "name": "stakedTokens",
      "outputs": [
        {
          "internalType": "uint256",
          "name": "",
          "type": "uint256"
        }
      ],
      "stateMutability": "view",
      "type": "function"
    },
    {
      "inputs": [],
      "name": "symbol",
      "outputs": [
        {
          "internalType": "string",
          "name": "",
          "type": "string"
        }
      ],
      "stateMutability": "view",
      "type": "function"
    },
    {
      "inputs": [],
      "name": "totalSupply",
      "outputs": [
        {
          "internalType": "uint256",
          "name": "",
          "type": "uint256"
        }
      ],
      "stateMutability": "view",
      "type": "function"
    },
    {
      "inputs": [
        {
          "internalType": "address",
          "name": "to",
          "type": "address"
        },
        {
          "internalType": "uint256",
          "name": "amount",
          "type": "uint256"
        }
      ],
      "name": "transfer",
      "outputs": [
        {
          "internalType": "bool",
          "name": "",
          "type": "bool"
        }
      ],
      "stateMutability": "nonpayable",
      "type": "function"
    },
    {
      "inputs": [
        {
          "internalType": "address",
          "name": "from",
          "type": "address"
        },
        {
          "internalType": "address",
          "name": "to",
          "type": "address"
        },
        {
          "internalType": "uint256",
          "name": "amount",
          "type": "uint256"
        }
      ],
      "name": "transferFrom",
      "outputs": [
        {
          "internalType": "bool",
          "name": "",
          "type": "bool"
        }
      ],
      "stateMutability": "nonpayable",
      "type": "function"
    },
    {
      "inputs": [
        {
          "internalType": "address",
          "name": "newOwner",
          "type": "address"
        }
      ],
      "name": "transferOwnership",
      "outputs": [],
      "stateMutability": "nonpayable",
      "type": "function"
    },
    {
      "inputs": [],
      "name": "unpause",
      "outputs": [],
      "stateMutability": "nonpayable",
      "type": "function"
    },
    {
      "inputs": [
        {
          "internalType": "uint256",
          "name": "amount",
          "type": "uint256"
        }
      ],
      "name": "unstake",
      "outputs": [],
      "stateMutability": "nonpayable",
      "type": "function"
    }
  ],
  "bytecode": "0x60806040523480156200001157600080fd5b50604051620013b2380380620013b28339810160408190526200003491620002d6565b806040518060400160405280600b81526020016a21b937b0b5902a37b5b2b760a91b8152506040518060400160405280600581526020016443524f414b60d81b8152508160039081620000889190620003ad565b506004620000978282620003ad565b5050506001600160a01b038116620000ca57604051631e4fbdf760e01b8152600060048201526024015b60405180910390fd5b620000d58162000113565b506005805460ff60a01b191690556200010c81620000f66012600a6200058e565b6200010690633b9aca006200059f565b62000165565b50620005cf565b600580546001600160a01b038381166001600160a01b0319831681179093556040519116919082907f8be0079c531659141344cd1fd0a4f28419497f9722a3daafe3b4186f6b6457e090600090a35050565b6001600160a01b038216620001915760405163ec442f0560e01b815260006004820152602401620000c1565b6200019f60008383620001a3565b5050565b6001600160a01b038316620001d2578060026000828254620001c69190620005b9565b90915550620002469050565b6001600160a01b03831660009081526020819052604090205481811015620002275760405163391434e360e21b81526001600160a01b03851660048201526024810182905260448101839052606401620000c1565b6001600160a01b03841660009081526020819052604090209082900390555b6001600160a01b038216620002645760028054829003905562000283565b6001600160a01b03821660009081526020819052604090208054820190555b816001600160a01b0316836001600160a01b03167fddf252ad1be2c89b69c2b068fc378daa952ba7f163c4a11628f55a4df523b3ef83604051620002c991815260200190565b60405180910390a3505050565b600060208284031215620002e957600080fd5b81516001600160a01b03811681146200030157600080fd5b9392505050565b634e487b7160e01b600052604160045260246000fd5b600181811c908216806200033357607f821691505b6020821081036200035457634e487b7160e01b600052602260045260246000fd5b50919050565b601f821115620003a857600081815260208120601f850160051c81016020861015620003835750805b601f850160051c820191505b81811015620003a4578281556001016200038f565b5050505b505050565b81516001600160401b03811115620003c957620003c962000308565b620003e181620003da84546200031e565b846200035a565b602080601f831160018114620004195760008415620004005750858301515b600019600386901b1c1916600185901b178555620003a4565b600085815260208120601f198616915b828110156200044a5788860151825594840194600190910190840162000429565b5085821015620004695787850151600019600388901b60f8161c191681555b5050505050600190811b01905550565b634e487b7160e01b600052601160045260246000fd5b600181815b80851115620004d0578160001904821115620004b457620004b462000479565b80851615620004c257918102915b93841c939080029062000494565b509250929050565b600082620004e95750600162000588565b81620004f85750600062000588565b81600181146200051157600281146200051c576200053c565b600191505062000588565b60ff84111562000530576200053062000479565b50506001821b62000588565b5060208310610133831016604e8410600b841016171562000561575081810a62000588565b6200056d83836200048f565b806000190482111562000584576200058462000479565b0290505b92915050565b60006200030160ff841683620004d8565b808202811582820484141762000588576200058862000479565b8082018082111562000588576200058862000479565b610dd380620005df6000396000f3fe608060405234801561001057600080fd5b50600436106101375760003560e01c806370a08231116100b8578063a5b39cfb1161007c578063a5b39cfb14610282578063a694fc3a146102a2578063a9059cbb146102b5578063d3f33009146102c8578063dd62ed3e146102db578063f2fde38b1461031457600080fd5b806370a082311461021c578063715018a6146102455780638456cb591461024d5780638da5cb5b1461025557806395d89b411461027a57600080fd5b8063313ce567116100ff578063313ce567146101b75780633a02a42d146101c65780633f4ba83a146101ef578063405ebd4d146101f75780635c975abb1461020a57600080fd5b806306fdde031461013c578063095ea7b31461015a57806318160ddd1461017d57806323b872dd1461018f5780632e17de78146101a2575b600080fd5b610144610327565b6040516101519190610bf0565b60405180910390f35b61016d610168366004610c5a565b6103b9565b6040519015158152602001610151565b6002545b604051908152602001610151565b61016d61019d366004610c84565b6103d3565b6101b56101b0366004610cc0565b6103f0565b005b60405160128152602001610151565b6101816101d4366004610cd9565b6001600160a01b031660009081526007602052604090205490565b6101b5610515565b6101b5610205366004610cd9565b610527565b600554600160a01b900460ff1661016d565b61018161022a366004610cd9565b6001600160a01b031660009081526020819052604090205490565b6101b56105cf565b6101b56105e1565b6005546001600160a01b03165b6040516001600160a01b039091168152602001610151565b6101446105f1565b610181610290366004610cd9565b60076020526000908152604090205481565b6101b56102b0366004610cc0565b610600565b61016d6102c3366004610c5a565b61070f565b600654610262906001600160a01b031681565b6101816102e9366004610cf4565b6001600160a01b03918216600090815260016020908152604080832093909416825291909152205490565b6101b5610322366004610cd9565b61072a565b60606003805461033690610d27565b80601f016020809104026020016040519081016040528092919081815260200182805461036290610d27565b80156103af5780601f10610384576101008083540402835291602001916103af565b820191906000526020600020905b81548152906001019060200180831161039257829003601f168201915b5050505050905090565b6000336103c7818585610768565b60019150505b92915050565b60006103dd61077a565b6103e88484846107a5565b949350505050565b6103f861077a565b6000811161044d5760405162461bcd60e51b815260206004820152601d60248201527f416d6f756e74206d7573742062652067726561746572207468616e203000000060448201526064015b60405180910390fd5b336000908152600760205260409020548111156104ac5760405162461bcd60e51b815260206004820152601b60248201527f496e73756666696369656e74207374616b65642062616c616e636500000000006044820152606401610444565b33600090815260076020526040812080548392906104cb908490610d77565b909155506104dc90503033836107c9565b60405181815233907f9845e367b683334e5c0b12d7b81721ac518e649376fa65e3d68324e8f34f2679906020015b60405180910390a250565b61051d610828565b610525610855565b565b61052f610828565b6001600160a01b0381166105855760405162461bcd60e51b815260206004820152601d60248201527f496e76616c69642067616d6520636f6e747261637420616464726573730000006044820152606401610444565b600680546001600160a01b0319166001600160a01b0383169081179091556040517f0fda64424e106ff66a5173d9c3ec7fb2f234f4488457686975a66fe3371fd0f290600090a250565b6105d7610828565b61052560006108aa565b6105e9610828565b6105256108fc565b60606004805461033690610d27565b61060861077a565b600081116106585760405162461bcd60e51b815260206004820152601d60248201527f416d6f756e74206d7573742062652067726561746572207468616e20300000006044820152606401610444565b336000908152602081905260409020548111156106ae5760405162461bcd60e51b8152602060048201526014602482015273496e73756666696369656e742062616c616e636560601b6044820152606401610444565b6106b93330836107c9565b33600090815260076020526040812080548392906106d8908490610d8a565b909155505060405181815233907fb539ca1e5c8d398ddf1c41c30166f33404941683be4683319b57669a93dad4ef9060200161050a565b600061071961077a565b610723838361093f565b9392505050565b610732610828565b6001600160a01b03811661075c57604051631e4fbdf760e01b815260006004820152602401610444565b610765816108aa565b50565b610775838383600161094d565b505050565b600554600160a01b900460ff16156105255760405163d93c066560e01b815260040160405180910390fd5b6000336107b3858285610a23565b6107be8585856107c9565b506001949350505050565b6001600160a01b0383166107f357604051634b637e8f60e11b815260006004820152602401610444565b6001600160a01b03821661081d5760405163ec442f0560e01b815260006004820152602401610444565b610775838383610a9c565b6005546001600160a01b031633146105255760405163118cdaa760e01b8152336004820152602401610444565b61085d610bc6565b6005805460ff60a01b191690557f5db9ee0a495bf2e6ff9c91a7834c1ba4fdd244a5e8aa4e537bd38aeae4b073aa335b6040516001600160a01b03909116815260200160405180910390a1565b600580546001600160a01b038381166001600160a01b0319831681179093556040519116919082907f8be0079c531659141344cd1fd0a4f28419497f9722a3daafe3b4186f6b6457e090600090a35050565b61090461077a565b6005805460ff60a01b1916600160a01b1790557f62e78cea01bee320cd4e420270b5ea74000d11b0c9f74754ebdbfc544b05a25861088d3390565b6000336103c78185856107c9565b6001600160a01b0384166109775760405163e602df0560e01b815260006004820152602401610444565b6001600160a01b0383166109a157604051634a1406b160e11b815260006004820152602401610444565b6001600160a01b0380851660009081526001602090815260408083209387168352929052208290558015610a1d57826001600160a01b0316846001600160a01b03167f8c5be1e5ebec7d5bd14f71427d1e84f3dd0314c0f7b2291e5b200ac8c7c3b92584604051610a1491815260200190565b60405180910390a35b50505050565b6001600160a01b03838116600090815260016020908152604080832093861683529290522054600019811015610a1d5781811015610a8d57604051637dc7a0d960e11b81526001600160a01b03841660048201526024810182905260448101839052606401610444565b610a1d8484848403600061094d565b6001600160a01b038316610ac7578060026000828254610abc9190610d8a565b90915550610b399050565b6001600160a01b03831660009081526020819052604090205481811015610b1a5760405163391434e360e21b81526001600160a01b03851660048201526024810182905260448101839052606401610444565b6001600160a01b03841660009081526020819052604090209082900390555b6001600160a01b038216610b5557600280548290039055610b74565b6001600160a01b03821660009081526020819052604090208054820190555b816001600160a01b0316836001600160a01b03167fddf252ad1be2c89b69c2b068fc378daa952ba7f163c4a11628f55a4df523b3ef83604051610bb991815260200190565b60405180910390a3505050565b600554600160a01b900460ff1661052557604051638dfc202b60e01b815260040160405180910390fd5b600060208083528351808285015260005b81811015610c1d57858101830151858201604001528201610c01565b506000604082860101526040601f19601f8301168501019250505092915050565b80356001600160a01b0381168114610c5557600080fd5b919050565b60008060408385031215610c6d57600080fd5b610c7683610c3e565b946020939093013593505050565b600080600060608486031215610c9957600080fd5b610ca284610c3e565b9250610cb060208501610c3e565b9150604084013590509250925092565b600060208284031215610cd257600080fd5b5035919050565b600060208284031215610ceb57600080fd5b61072382610c3e565b60008060408385031215610d0757600080fd5b610d1083610c3e565b9150610d1e60208401610c3e565b90509250929050565b600181811c90821680610d3b57607f821691505b602082108103610d5b57634e487b7160e01b600052602260045260246000fd5b50919050565b634e487b7160e01b600052601160045260246000fd5b818103818111156103cd576103cd610d61565b808201808211156103cd576103cd610d6156fea2646970667358221220167ccc14eb6bb32acb57a44b74449daaa13e98c3abc67e902c9e2cbbae3dd2f764736f6c63430008140033",
  "linkReferences": {},
  "deployedLinkReferences": {}
}