{
  "_format": "hh-sol-artifact-1",
  "contractName": "Greeter",
  "sourceName": "contracts/Greeter.sol",
  "abi": [
    {
      "inputs": [
        {
          "internalType": "string",
          "name": "_greeting",
          "type": "string"
        }
      ],
      "stateMutability": "nonpayable",
      "type": "constructor"
    },
    {
      "inputs": [],
      "name": "getGreeting",
      "outputs": [
        {
          "internalType": "string",
          "name": "",
          "type": "string"
        }
      ],
      "stateMutability": "view",
      "type": "function"
    },
    {
      "inputs": [
        {
          "internalType": "string",
          "name": "_greeting",
          "type": "string"
        }
      ],
      "name": "setGreeting",
      "outputs": [],
      "stateMutability": "nonpayable",
      "type": "function"
    }
  ],
  "bytecode": "0x60806040523480156200001157600080fd5b506040516200093c3803806200093c833981016040819052620000349162000136565b620000596040518060600160405280602281526020016200091a60229139826200006f565b60006200006782826200027d565b5050620003a9565b620000bc82826040516024016200008892919062000377565b60408051601f198184030181529190526020810180516001600160e01b03908116634b5c427760e01b17909152620000c016565b5050565b620000d681620000d960201b620001bd1760201c565b50565b60006a636f6e736f6c652e6c6f679050600080835160208501845afa505050565b634e487b7160e01b600052604160045260246000fd5b60005b838110156200012d57818101518382015260200162000113565b50506000910152565b6000602082840312156200014957600080fd5b81516001600160401b03808211156200016157600080fd5b818401915084601f8301126200017657600080fd5b8151818111156200018b576200018b620000fa565b604051601f8201601f19908116603f01168101908382118183101715620001b657620001b6620000fa565b81604052828152876020848701011115620001d057600080fd5b620001e383602083016020880162000110565b979650505050505050565b600181811c908216806200020357607f821691505b6020821081036200022457634e487b7160e01b600052602260045260246000fd5b50919050565b601f8211156200027857600081815260208120601f850160051c81016020861015620002535750805b601f850160051c820191505b8181101562000274578281556001016200025f565b5050505b505050565b81516001600160401b03811115620002995762000299620000fa565b620002b181620002aa8454620001ee565b846200022a565b602080601f831160018114620002e95760008415620002d05750858301515b600019600386901b1c1916600185901b17855562000274565b600085815260208120601f198616915b828110156200031a57888601518255948401946001909101908401620002f9565b5085821015620003395787850151600019600388901b60f8161c191681555b5050505050600190811b01905550565b600081518084526200036381602086016020860162000110565b601f01601f19169290920160200192915050565b6040815260006200038c604083018562000349565b8281036020840152620003a0818562000349565b95945050505050565b61056180620003b96000396000f3fe608060405234801561001057600080fd5b50600436106100365760003560e01c8063a41368621461003b578063fe50cc7214610050575b600080fd5b61004e610049366004610256565b61006e565b005b61005861012b565b604051610065919061034d565b60405180910390f35b61011b604051806060016040528060238152602001610509602391396000805461009790610367565b80601f01602080910402602001604051908101604052809291908181526020018280546100c390610367565b80156101105780601f106100e557610100808354040283529160200191610110565b820191906000526020600020905b8154815290600101906020018083116100f357829003601f168201915b5050505050836101de565b600061012782826103ef565b5050565b60606000805461013a90610367565b80601f016020809104026020016040519081016040528092919081815260200182805461016690610367565b80156101b35780601f10610188576101008083540402835291602001916101b3565b820191906000526020600020905b81548152906001019060200180831161019657829003601f168201915b5050505050905090565b60006a636f6e736f6c652e6c6f679050600080835160208501845afa505050565b6102258383836040516024016101f6939291906104af565b60408051601f198184030181529190526020810180516001600160e01b0316632ced7cef60e01b17905261022a565b505050565b610233816101bd565b50565b61023e6104f2565b565b634e487b7160e01b600052604160045260246000fd5b60006020828403121561026857600080fd5b813567ffffffffffffffff8082111561028057600080fd5b818401915084601f83011261029457600080fd5b8135818111156102a6576102a6610240565b604051601f8201601f19908116603f011681019083821181831017156102ce576102ce610240565b816040528281528760208487010111156102e757600080fd5b826020860160208301376000928101602001929092525095945050505050565b6000815180845260005b8181101561032d57602081850181015186830182015201610311565b506000602082860101526020601f19601f83011685010191505092915050565b6020815260006103606020830184610307565b9392505050565b600181811c9082168061037b57607f821691505b60208210810361039b57634e487b7160e01b600052602260045260246000fd5b50919050565b601f82111561022557600081815260208120601f850160051c810160208610156103c85750805b601f850160051c820191505b818110156103e7578281556001016103d4565b505050505050565b815167ffffffffffffffff81111561040957610409610240565b61041d816104178454610367565b846103a1565b602080601f831160018114610452576000841561043a5750858301515b600019600386901b1c1916600185901b1785556103e7565b600085815260208120601f198616915b8281101561048157888601518255948401946001909101908401610462565b508582101561049f5787850151600019600388901b60f8161c191681555b5050505050600190811b01905550565b6060815260006104c26060830186610307565b82810360208401526104d48186610307565b905082810360408401526104e88185610307565b9695505050505050565b634e487b7160e01b600052605160045260246000fdfe4368616e67696e67206772656574696e672066726f6d202725732720746f2027257327a264697066735822122071ada7989c31a78cc7e13e501e881e8f0111aa4642d4b8f0670aa198b2a1335364736f6c634300081400334465706c6f79696e67206120477265657465722077697468206772656574696e673a",
  "linkReferences": {},
  "deployedLinkReferences": {}
}